{
  "contractName": "CryptoBoys",
  "abi": [
    {
      "inputs": [],
      "stateMutability": "nonpayable",
      "type": "constructor"
    },
    {
      "anonymous": false,
      "inputs": [
        {
          "indexed": true,
          "internalType": "address",
          "name": "owner",
          "type": "address"
        },
        {
          "indexed": true,
          "internalType": "address",
          "name": "approved",
          "type": "address"
        },
        {
          "indexed": true,
          "internalType": "uint256",
          "name": "tokenId",
          "type": "uint256"
        }
      ],
      "name": "Approval",
      "type": "event"
    },
    {
      "anonymous": false,
      "inputs": [
        {
          "indexed": true,
          "internalType": "address",
          "name": "owner",
          "type": "address"
        },
        {
          "indexed": true,
          "internalType": "address",
          "name": "operator",
          "type": "address"
        },
        {
          "indexed": false,
          "internalType": "bool",
          "name": "approved",
          "type": "bool"
        }
      ],
      "name": "ApprovalForAll",
      "type": "event"
    },
    {
      "anonymous": false,
      "inputs": [
        {
          "indexed": true,
          "internalType": "address",
          "name": "from",
          "type": "address"
        },
        {
          "indexed": true,
          "internalType": "address",
          "name": "to",
          "type": "address"
        },
        {
          "indexed": true,
          "internalType": "uint256",
          "name": "tokenId",
          "type": "uint256"
        }
      ],
      "name": "Transfer",
      "type": "event"
    },
    {
      "inputs": [
        {
          "internalType": "uint256",
          "name": "",
          "type": "uint256"
        }
      ],
      "name": "allCryptoBoys",
      "outputs": [
        {
          "internalType": "uint256",
          "name": "tokenId",
          "type": "uint256"
        },
        {
          "internalType": "string",
          "name": "tokenName",
          "type": "string"
        },
        {
          "internalType": "string",
          "name": "tokenURI",
          "type": "string"
        },
        {
          "internalType": "address payable",
          "name": "mintedBy",
          "type": "address"
        },
        {
          "internalType": "address payable",
          "name": "currentOwner",
          "type": "address"
        },
        {
          "internalType": "address payable",
          "name": "previousOwner",
          "type": "address"
        },
        {
          "internalType": "uint256",
          "name": "price",
          "type": "uint256"
        },
        {
          "internalType": "uint256",
          "name": "numberOfTransfers",
          "type": "uint256"
        },
        {
          "internalType": "bool",
          "name": "forSale",
          "type": "bool"
        }
      ],
      "stateMutability": "view",
      "type": "function"
    },
    {
      "inputs": [
        {
          "internalType": "address",
          "name": "to",
          "type": "address"
        },
        {
          "internalType": "uint256",
          "name": "tokenId",
          "type": "uint256"
        }
      ],
      "name": "approve",
      "outputs": [],
      "stateMutability": "nonpayable",
      "type": "function"
    },
    {
      "inputs": [
        {
          "internalType": "address",
          "name": "owner",
          "type": "address"
        }
      ],
      "name": "balanceOf",
      "outputs": [
        {
          "internalType": "uint256",
          "name": "",
          "type": "uint256"
        }
      ],
      "stateMutability": "view",
      "type": "function"
    },
    {
      "inputs": [],
      "name": "baseURI",
      "outputs": [
        {
          "internalType": "string",
          "name": "",
          "type": "string"
        }
      ],
      "stateMutability": "view",
      "type": "function"
    },
    {
      "inputs": [],
      "name": "collectionName",
      "outputs": [
        {
          "internalType": "string",
          "name": "",
          "type": "string"
        }
      ],
      "stateMutability": "view",
      "type": "function"
    },
    {
      "inputs": [],
      "name": "collectionNameSymbol",
      "outputs": [
        {
          "internalType": "string",
          "name": "",
          "type": "string"
        }
      ],
      "stateMutability": "view",
      "type": "function"
    },
    {
      "inputs": [
        {
          "internalType": "string",
          "name": "",
          "type": "string"
        }
      ],
      "name": "colorExists",
      "outputs": [
        {
          "internalType": "bool",
          "name": "",
          "type": "bool"
        }
      ],
      "stateMutability": "view",
      "type": "function"
    },
    {
      "inputs": [],
      "name": "cryptoBoyCounter",
      "outputs": [
        {
          "internalType": "uint256",
          "name": "",
          "type": "uint256"
        }
      ],
      "stateMutability": "view",
      "type": "function"
    },
    {
      "inputs": [
        {
          "internalType": "uint256",
          "name": "tokenId",
          "type": "uint256"
        }
      ],
      "name": "getApproved",
      "outputs": [
        {
          "internalType": "address",
          "name": "",
          "type": "address"
        }
      ],
      "stateMutability": "view",
      "type": "function"
    },
    {
      "inputs": [
        {
          "internalType": "address",
          "name": "owner",
          "type": "address"
        },
        {
          "internalType": "address",
          "name": "operator",
          "type": "address"
        }
      ],
      "name": "isApprovedForAll",
      "outputs": [
        {
          "internalType": "bool",
          "name": "",
          "type": "bool"
        }
      ],
      "stateMutability": "view",
      "type": "function"
    },
    {
      "inputs": [],
      "name": "name",
      "outputs": [
        {
          "internalType": "string",
          "name": "",
          "type": "string"
        }
      ],
      "stateMutability": "view",
      "type": "function"
    },
    {
      "inputs": [
        {
          "internalType": "uint256",
          "name": "tokenId",
          "type": "uint256"
        }
      ],
      "name": "ownerOf",
      "outputs": [
        {
          "internalType": "address",
          "name": "",
          "type": "address"
        }
      ],
      "stateMutability": "view",
      "type": "function"
    },
    {
      "inputs": [
        {
          "internalType": "address",
          "name": "from",
          "type": "address"
        },
        {
          "internalType": "address",
          "name": "to",
          "type": "address"
        },
        {
          "internalType": "uint256",
          "name": "tokenId",
          "type": "uint256"
        }
      ],
      "name": "safeTransferFrom",
      "outputs": [],
      "stateMutability": "nonpayable",
      "type": "function"
    },
    {
      "inputs": [
        {
          "internalType": "address",
          "name": "from",
          "type": "address"
        },
        {
          "internalType": "address",
          "name": "to",
          "type": "address"
        },
        {
          "internalType": "uint256",
          "name": "tokenId",
          "type": "uint256"
        },
        {
          "internalType": "bytes",
          "name": "_data",
          "type": "bytes"
        }
      ],
      "name": "safeTransferFrom",
      "outputs": [],
      "stateMutability": "nonpayable",
      "type": "function"
    },
    {
      "inputs": [
        {
          "internalType": "address",
          "name": "operator",
          "type": "address"
        },
        {
          "internalType": "bool",
          "name": "approved",
          "type": "bool"
        }
      ],
      "name": "setApprovalForAll",
      "outputs": [],
      "stateMutability": "nonpayable",
      "type": "function"
    },
    {
      "inputs": [
        {
          "internalType": "bytes4",
          "name": "interfaceId",
          "type": "bytes4"
        }
      ],
      "name": "supportsInterface",
      "outputs": [
        {
          "internalType": "bool",
          "name": "",
          "type": "bool"
        }
      ],
      "stateMutability": "view",
      "type": "function"
    },
    {
      "inputs": [],
      "name": "symbol",
      "outputs": [
        {
          "internalType": "string",
          "name": "",
          "type": "string"
        }
      ],
      "stateMutability": "view",
      "type": "function"
    },
    {
      "inputs": [
        {
          "internalType": "uint256",
          "name": "index",
          "type": "uint256"
        }
      ],
      "name": "tokenByIndex",
      "outputs": [
        {
          "internalType": "uint256",
          "name": "",
          "type": "uint256"
        }
      ],
      "stateMutability": "view",
      "type": "function"
    },
    {
      "inputs": [
        {
          "internalType": "string",
          "name": "",
          "type": "string"
        }
      ],
      "name": "tokenNameExists",
      "outputs": [
        {
          "internalType": "bool",
          "name": "",
          "type": "bool"
        }
      ],
      "stateMutability": "view",
      "type": "function"
    },
    {
      "inputs": [
        {
          "internalType": "address",
          "name": "owner",
          "type": "address"
        },
        {
          "internalType": "uint256",
          "name": "index",
          "type": "uint256"
        }
      ],
      "name": "tokenOfOwnerByIndex",
      "outputs": [
        {
          "internalType": "uint256",
          "name": "",
          "type": "uint256"
        }
      ],
      "stateMutability": "view",
      "type": "function"
    },
    {
      "inputs": [
        {
          "internalType": "uint256",
          "name": "tokenId",
          "type": "uint256"
        }
      ],
      "name": "tokenURI",
      "outputs": [
        {
          "internalType": "string",
          "name": "",
          "type": "string"
        }
      ],
      "stateMutability": "view",
      "type": "function"
    },
    {
      "inputs": [
        {
          "internalType": "string",
          "name": "",
          "type": "string"
        }
      ],
      "name": "tokenURIExists",
      "outputs": [
        {
          "internalType": "bool",
          "name": "",
          "type": "bool"
        }
      ],
      "stateMutability": "view",
      "type": "function"
    },
    {
      "inputs": [],
      "name": "totalSupply",
      "outputs": [
        {
          "internalType": "uint256",
          "name": "",
          "type": "uint256"
        }
      ],
      "stateMutability": "view",
      "type": "function"
    },
    {
      "inputs": [
        {
          "internalType": "address",
          "name": "from",
          "type": "address"
        },
        {
          "internalType": "address",
          "name": "to",
          "type": "address"
        },
        {
          "internalType": "uint256",
          "name": "tokenId",
          "type": "uint256"
        }
      ],
      "name": "transferFrom",
      "outputs": [],
      "stateMutability": "nonpayable",
      "type": "function"
    },
    {
      "inputs": [
        {
          "internalType": "string",
          "name": "_name",
          "type": "string"
        },
        {
          "internalType": "string",
          "name": "_tokenURI",
          "type": "string"
        },
        {
          "internalType": "uint256",
          "name": "_price",
          "type": "uint256"
        },
        {
          "internalType": "string[]",
          "name": "_colors",
          "type": "string[]"
        }
      ],
      "name": "mintCryptoBoy",
      "outputs": [],
      "stateMutability": "nonpayable",
      "type": "function"
    },
    {
      "inputs": [
        {
          "internalType": "uint256",
          "name": "_tokenId",
          "type": "uint256"
        }
      ],
      "name": "getTokenOwner",
      "outputs": [
        {
          "internalType": "address",
          "name": "",
          "type": "address"
        }
      ],
      "stateMutability": "view",
      "type": "function"
    },
    {
      "inputs": [
        {
          "internalType": "uint256",
          "name": "_tokenId",
          "type": "uint256"
        }
      ],
      "name": "getTokenMetaData",
      "outputs": [
        {
          "internalType": "string",
          "name": "",
          "type": "string"
        }
      ],
      "stateMutability": "view",
      "type": "function"
    },
    {
      "inputs": [],
      "name": "getNumberOfTokensMinted",
      "outputs": [
        {
          "internalType": "uint256",
          "name": "",
          "type": "uint256"
        }
      ],
      "stateMutability": "view",
      "type": "function"
    },
    {
      "inputs": [
        {
          "internalType": "address",
          "name": "_owner",
          "type": "address"
        }
      ],
      "name": "getTotalNumberOfTokensOwnedByAnAddress",
      "outputs": [
        {
          "internalType": "uint256",
          "name": "",
          "type": "uint256"
        }
      ],
      "stateMutability": "view",
      "type": "function"
    },
    {
      "inputs": [
        {
          "internalType": "uint256",
          "name": "_tokenId",
          "type": "uint256"
        }
      ],
      "name": "getTokenExists",
      "outputs": [
        {
          "internalType": "bool",
          "name": "",
          "type": "bool"
        }
      ],
      "stateMutability": "view",
      "type": "function"
    },
    {
      "inputs": [
        {
          "internalType": "uint256",
          "name": "_tokenId",
          "type": "uint256"
        }
      ],
      "name": "buyToken",
      "outputs": [],
      "stateMutability": "payable",
      "type": "function"
    },
    {
      "inputs": [
        {
          "internalType": "uint256",
          "name": "_tokenId",
          "type": "uint256"
        },
        {
          "internalType": "uint256",
          "name": "_newPrice",
          "type": "uint256"
        }
      ],
      "name": "changeTokenPrice",
      "outputs": [],
      "stateMutability": "nonpayable",
      "type": "function"
    },
    {
      "inputs": [
        {
          "internalType": "uint256",
          "name": "_tokenId",
          "type": "uint256"
        }
      ],
      "name": "toggleForSale",
      "outputs": [],
      "stateMutability": "nonpayable",
      "type": "function"
    }
  ],
  "bytecode": "0x60806040523480156200001157600080fd5b506040518060400160405280601681526020017f43727970746f20426f797320436f6c6c656374696f6e000000000000000000008152506040518060400160405280600281526020017f4342000000000000000000000000000000000000000000000000000000000000815250620000966301ffc9a760e01b6200016860201b60201c565b8160069080519060200190620000ae92919062000374565b508060079080519060200190620000c792919062000374565b50620000e06380ac58cd60e01b6200016860201b60201c565b620000f8635b5e139f60e01b6200016860201b60201c565b6200011063780e9d6360e01b6200016860201b60201c565b5050620001226200024060201b60201c565b600a90805190602001906200013992919062000374565b506200014a620002da60201b60201c565b600b90805190602001906200016192919062000374565b50620004fe565b63ffffffff60e01b817bffffffffffffffffffffffffffffffffffffffffffffffffffffffff19161415620001d4576040517f08c379a0000000000000000000000000000000000000000000000000000000008152600401620001cb9062000466565b60405180910390fd5b6001600080837bffffffffffffffffffffffffffffffffffffffffffffffffffffffff19167bffffffffffffffffffffffffffffffffffffffffffffffffffffffff1916815260200190815260200160002060006101000a81548160ff02191690831515021790555050565b606060068054620002519062000499565b80601f01602080910402602001604051908101604052809291908181526020018280546200027f9062000499565b8015620002d05780601f10620002a457610100808354040283529160200191620002d0565b820191906000526020600020905b815481529060010190602001808311620002b257829003601f168201915b5050505050905090565b606060078054620002eb9062000499565b80601f0160208091040260200160405190810160405280929190818152602001828054620003199062000499565b80156200036a5780601f106200033e576101008083540402835291602001916200036a565b820191906000526020600020905b8154815290600101906020018083116200034c57829003601f168201915b5050505050905090565b828054620003829062000499565b90600052602060002090601f016020900481019282620003a65760008555620003f2565b82601f10620003c157805160ff1916838001178555620003f2565b82800160010185558215620003f2579182015b82811115620003f1578251825591602001919060010190620003d4565b5b50905062000401919062000405565b5090565b5b808211156200042057600081600090555060010162000406565b5090565b600062000433601c8362000488565b91507f4552433136353a20696e76616c696420696e74657266616365206964000000006000830152602082019050919050565b60006020820190508181036000830152620004818162000424565b9050919050565b600082825260208201905092915050565b60006002820490506001821680620004b257607f821691505b60208210811415620004c957620004c8620004cf565b5b50919050565b7f4e487b7100000000000000000000000000000000000000000000000000000000600052602260045260246000fd5b6151ea806200050e6000396000f3fe6080604052600436106101ee5760003560e01c806367c623cf1161010d578063a32018b9116100a0578063bffec2021161006f578063bffec2021461078c578063c87b56dd146107b7578063cc151f3a146107f4578063e5326ab11461081f578063e985e9c51461084a576101ee565b8063a32018b9146106c0578063a46b1fac146106e9578063a5cd761f14610726578063b88d4fde14610763576101ee565b80638d44807c116100dc5780638d44807c1461060657806395d89b41146106435780639bfc5a591461066e578063a22cb46514610697576101ee565b806367c623cf146105365780636c0360eb146105735780636f9507f91461059e57806370a08231146105c9576101ee565b80632f745c591161018557806344c0d7eb1161015457806344c0d7eb1461044e5780634f6ccce71461049357806362e8e8ac146104d05780636352211e146104f9576101ee565b80632f745c591461036e57806342842e0e146103ab57806343902850146103d457806343d32ae714610411576101ee565b8063142687f3116101c1578063142687f3146102c157806318160ddd146102fe57806323b872dd146103295780632d296bf114610352576101ee565b806301ffc9a7146101f357806306fdde0314610230578063081812fc1461025b578063095ea7b314610298575b600080fd5b3480156101ff57600080fd5b5061021a60048036038101906102159190613f2b565b610887565b604051610227919061496e565b60405180910390f35b34801561023c57600080fd5b506102456108ee565b6040516102529190614989565b60405180910390f35b34801561026757600080fd5b50610282600480360381019061027d919061406e565b610980565b60405161028f9190614907565b60405180910390f35b3480156102a457600080fd5b506102bf60048036038101906102ba9190613eef565b610a05565b005b3480156102cd57600080fd5b506102e860048036038101906102e3919061406e565b610b1d565b6040516102f5919061496e565b60405180910390f35b34801561030a57600080fd5b50610313610b34565b6040516103209190614beb565b60405180910390f35b34801561033557600080fd5b50610350600480360381019061034b9190613de9565b610b45565b005b61036c6004803603810190610367919061406e565b610ba5565b005b34801561037a57600080fd5b5061039560048036038101906103909190613eef565b611167565b6040516103a29190614beb565b60405180910390f35b3480156103b757600080fd5b506103d260048036038101906103cd9190613de9565b6111c2565b005b3480156103e057600080fd5b506103fb60048036038101906103f69190613d84565b6111e2565b6040516104089190614beb565b60405180910390f35b34801561041d57600080fd5b5061043860048036038101906104339190613f7d565b6111f9565b604051610445919061496e565b60405180910390f35b34801561045a57600080fd5b506104756004803603810190610470919061406e565b61122f565b60405161048a99989796959493929190614c06565b60405180910390f35b34801561049f57600080fd5b506104ba60048036038101906104b5919061406e565b6113fa565b6040516104c79190614beb565b60405180910390f35b3480156104dc57600080fd5b506104f760048036038101906104f29190614097565b61141d565b005b34801561050557600080fd5b50610520600480360381019061051b919061406e565b6118a5565b60405161052d9190614907565b60405180910390f35b34801561054257600080fd5b5061055d6004803603810190610558919061406e565b6118dc565b60405161056a9190614989565b60405180910390f35b34801561057f57600080fd5b506105886118f4565b6040516105959190614989565b60405180910390f35b3480156105aa57600080fd5b506105b3611986565b6040516105c09190614989565b60405180910390f35b3480156105d557600080fd5b506105f060048036038101906105eb9190613d84565b611a14565b6040516105fd9190614beb565b60405180910390f35b34801561061257600080fd5b5061062d60048036038101906106289190613f7d565b611ad3565b60405161063a919061496e565b60405180910390f35b34801561064f57600080fd5b50610658611b09565b6040516106659190614989565b60405180910390f35b34801561067a57600080fd5b5061069560048036038101906106909190613fbe565b611b9b565b005b3480156106a357600080fd5b506106be60048036038101906106b99190613eb3565b612037565b005b3480156106cc57600080fd5b506106e760048036038101906106e2919061406e565b6121b8565b005b3480156106f557600080fd5b50610710600480360381019061070b9190613f7d565b61266a565b60405161071d919061496e565b60405180910390f35b34801561073257600080fd5b5061074d6004803603810190610748919061406e565b6126a0565b60405161075a9190614907565b60405180910390f35b34801561076f57600080fd5b5061078a60048036038101906107859190613e38565b6126b7565b005b34801561079857600080fd5b506107a1612719565b6040516107ae9190614beb565b60405180910390f35b3480156107c357600080fd5b506107de60048036038101906107d9919061406e565b61271f565b6040516107eb9190614989565b60405180910390f35b34801561080057600080fd5b50610809612892565b6040516108169190614beb565b60405180910390f35b34801561082b57600080fd5b506108346128a6565b6040516108419190614989565b60405180910390f35b34801561085657600080fd5b50610871600480360381019061086c9190613dad565b612934565b60405161087e919061496e565b60405180910390f35b6000806000837bffffffffffffffffffffffffffffffffffffffffffffffffffffffff19167bffffffffffffffffffffffffffffffffffffffffffffffffffffffff1916815260200190815260200160002060009054906101000a900460ff169050919050565b6060600680546108fd90614f84565b80601f016020809104026020016040519081016040528092919081815260200182805461092990614f84565b80156109765780601f1061094b57610100808354040283529160200191610976565b820191906000526020600020905b81548152906001019060200180831161095957829003601f168201915b5050505050905090565b600061098b826129c8565b6109ca576040517f08c379a00000000000000000000000000000000000000000000000000000000081526004016109c190614b0b565b60405180910390fd5b6004600083815260200190815260200160002060009054906101000a900473ffffffffffffffffffffffffffffffffffffffff169050919050565b6000610a10826118a5565b90508073ffffffffffffffffffffffffffffffffffffffff168373ffffffffffffffffffffffffffffffffffffffff161415610a81576040517f08c379a0000000000000000000000000000000000000000000000000000000008152600401610a7890614b8b565b60405180910390fd5b8073ffffffffffffffffffffffffffffffffffffffff16610aa06129e5565b73ffffffffffffffffffffffffffffffffffffffff161480610acf5750610ace81610ac96129e5565b612934565b5b610b0e576040517f08c379a0000000000000000000000000000000000000000000000000000000008152600401610b0590614a8b565b60405180910390fd5b610b1883836129ed565b505050565b600080610b29836129c8565b905080915050919050565b6000610b406002612aa6565b905090565b610b56610b506129e5565b82612abb565b610b95576040517f08c379a0000000000000000000000000000000000000000000000000000000008152600401610b8c90614bab565b60405180910390fd5b610ba0838383612b99565b505050565b600073ffffffffffffffffffffffffffffffffffffffff163373ffffffffffffffffffffffffffffffffffffffff161415610bdf57600080fd5b610be8816129c8565b610bf157600080fd5b6000610bfc826118a5565b9050600073ffffffffffffffffffffffffffffffffffffffff168173ffffffffffffffffffffffffffffffffffffffff161415610c3857600080fd5b3373ffffffffffffffffffffffffffffffffffffffff168173ffffffffffffffffffffffffffffffffffffffff161415610c7157600080fd5b6000600d60008481526020019081526020016000206040518061012001604052908160008201548152602001600182018054610cac90614f84565b80601f0160208091040260200160405190810160405280929190818152602001828054610cd890614f84565b8015610d255780601f10610cfa57610100808354040283529160200191610d25565b820191906000526020600020905b815481529060010190602001808311610d0857829003601f168201915b50505050508152602001600282018054610d3e90614f84565b80601f0160208091040260200160405190810160405280929190818152602001828054610d6a90614f84565b8015610db75780601f10610d8c57610100808354040283529160200191610db7565b820191906000526020600020905b815481529060010190602001808311610d9a57829003601f168201915b505050505081526020016003820160009054906101000a900473ffffffffffffffffffffffffffffffffffffffff1673ffffffffffffffffffffffffffffffffffffffff1673ffffffffffffffffffffffffffffffffffffffff1681526020016004820160009054906101000a900473ffffffffffffffffffffffffffffffffffffffff1673ffffffffffffffffffffffffffffffffffffffff1673ffffffffffffffffffffffffffffffffffffffff1681526020016005820160009054906101000a900473ffffffffffffffffffffffffffffffffffffffff1673ffffffffffffffffffffffffffffffffffffffff1673ffffffffffffffffffffffffffffffffffffffff16815260200160068201548152602001600782015481526020016008820160009054906101000a900460ff16151515158152505090508060c00151341015610f0457600080fd5b806101000151610f1357600080fd5b610f1e823385612b99565b6000816080015190508073ffffffffffffffffffffffffffffffffffffffff166108fc349081150290604051600060405180830381858888f19350505050158015610f6d573d6000803e3d6000fd5b5081608001518260a0019073ffffffffffffffffffffffffffffffffffffffff16908173ffffffffffffffffffffffffffffffffffffffff168152505033826080019073ffffffffffffffffffffffffffffffffffffffff16908173ffffffffffffffffffffffffffffffffffffffff168152505060018260e001818151610ff59190614dd7565b9150818152505081600d6000868152602001908152602001600020600082015181600001556020820151816001019080519060200190611036929190613b5e565b506040820151816002019080519060200190611053929190613b5e565b5060608201518160030160006101000a81548173ffffffffffffffffffffffffffffffffffffffff021916908373ffffffffffffffffffffffffffffffffffffffff16021790555060808201518160040160006101000a81548173ffffffffffffffffffffffffffffffffffffffff021916908373ffffffffffffffffffffffffffffffffffffffff16021790555060a08201518160050160006101000a81548173ffffffffffffffffffffffffffffffffffffffff021916908373ffffffffffffffffffffffffffffffffffffffff16021790555060c0820151816006015560e082015181600701556101008201518160080160006101000a81548160ff02191690831515021790555090505050505050565b60006111ba82600160008673ffffffffffffffffffffffffffffffffffffffff1673ffffffffffffffffffffffffffffffffffffffff168152602001908152602001600020612db090919063ffffffff16565b905092915050565b6111dd838383604051806020016040528060008152506126b7565b505050565b6000806111ee83611a14565b905080915050919050565b6010818051602081018201805184825260208301602085012081835280955050505050506000915054906101000a900460ff1681565b600d60205280600052604060002060009150905080600001549080600101805461125890614f84565b80601f016020809104026020016040519081016040528092919081815260200182805461128490614f84565b80156112d15780601f106112a6576101008083540402835291602001916112d1565b820191906000526020600020905b8154815290600101906020018083116112b457829003601f168201915b5050505050908060020180546112e690614f84565b80601f016020809104026020016040519081016040528092919081815260200182805461131290614f84565b801561135f5780601f106113345761010080835404028352916020019161135f565b820191906000526020600020905b81548152906001019060200180831161134257829003601f168201915b5050505050908060030160009054906101000a900473ffffffffffffffffffffffffffffffffffffffff16908060040160009054906101000a900473ffffffffffffffffffffffffffffffffffffffff16908060050160009054906101000a900473ffffffffffffffffffffffffffffffffffffffff16908060060154908060070154908060080160009054906101000a900460ff16905089565b600080611411836002612dca90919063ffffffff16565b50905080915050919050565b600073ffffffffffffffffffffffffffffffffffffffff163373ffffffffffffffffffffffffffffffffffffffff16141561145757600080fd5b611460826129c8565b61146957600080fd5b6000611474836118a5565b90503373ffffffffffffffffffffffffffffffffffffffff168173ffffffffffffffffffffffffffffffffffffffff16146114ae57600080fd5b6000600d600085815260200190815260200160002060405180610120016040529081600082015481526020016001820180546114e990614f84565b80601f016020809104026020016040519081016040528092919081815260200182805461151590614f84565b80156115625780601f1061153757610100808354040283529160200191611562565b820191906000526020600020905b81548152906001019060200180831161154557829003601f168201915b5050505050815260200160028201805461157b90614f84565b80601f01602080910402602001604051908101604052809291908181526020018280546115a790614f84565b80156115f45780601f106115c9576101008083540402835291602001916115f4565b820191906000526020600020905b8154815290600101906020018083116115d757829003601f168201915b505050505081526020016003820160009054906101000a900473ffffffffffffffffffffffffffffffffffffffff1673ffffffffffffffffffffffffffffffffffffffff1673ffffffffffffffffffffffffffffffffffffffff1681526020016004820160009054906101000a900473ffffffffffffffffffffffffffffffffffffffff1673ffffffffffffffffffffffffffffffffffffffff1673ffffffffffffffffffffffffffffffffffffffff1681526020016005820160009054906101000a900473ffffffffffffffffffffffffffffffffffffffff1673ffffffffffffffffffffffffffffffffffffffff1673ffffffffffffffffffffffffffffffffffffffff16815260200160068201548152602001600782015481526020016008820160009054906101000a900460ff1615151515815250509050828160c001818152505080600d6000868152602001908152602001600020600082015181600001556020820151816001019080519060200190611774929190613b5e565b506040820151816002019080519060200190611791929190613b5e565b5060608201518160030160006101000a81548173ffffffffffffffffffffffffffffffffffffffff021916908373ffffffffffffffffffffffffffffffffffffffff16021790555060808201518160040160006101000a81548173ffffffffffffffffffffffffffffffffffffffff021916908373ffffffffffffffffffffffffffffffffffffffff16021790555060a08201518160050160006101000a81548173ffffffffffffffffffffffffffffffffffffffff021916908373ffffffffffffffffffffffffffffffffffffffff16021790555060c0820151816006015560e082015181600701556101008201518160080160006101000a81548160ff02191690831515021790555090505050505050565b60006118d58260405180606001604052806029815260200161518c602991396002612df69092919063ffffffff16565b9050919050565b606060006118e98361271f565b905080915050919050565b60606009805461190390614f84565b80601f016020809104026020016040519081016040528092919081815260200182805461192f90614f84565b801561197c5780601f106119515761010080835404028352916020019161197c565b820191906000526020600020905b81548152906001019060200180831161195f57829003601f168201915b5050505050905090565b600b805461199390614f84565b80601f01602080910402602001604051908101604052809291908181526020018280546119bf90614f84565b8015611a0c5780601f106119e157610100808354040283529160200191611a0c565b820191906000526020600020905b8154815290600101906020018083116119ef57829003601f168201915b505050505081565b60008073ffffffffffffffffffffffffffffffffffffffff168273ffffffffffffffffffffffffffffffffffffffff161415611a85576040517f08c379a0000000000000000000000000000000000000000000000000000000008152600401611a7c90614aab565b60405180910390fd5b611acc600160008473ffffffffffffffffffffffffffffffffffffffff1673ffffffffffffffffffffffffffffffffffffffff168152602001908152602001600020612e15565b9050919050565b600f818051602081018201805184825260208301602085012081835280955050505050506000915054906101000a900460ff1681565b606060078054611b1890614f84565b80601f0160208091040260200160405190810160405280929190818152602001828054611b4490614f84565b8015611b915780601f10611b6657610100808354040283529160200191611b91565b820191906000526020600020905b815481529060010190602001808311611b7457829003601f168201915b5050505050905090565b600073ffffffffffffffffffffffffffffffffffffffff163373ffffffffffffffffffffffffffffffffffffffff161415611bd557600080fd5b600c6000815480929190611be890614fb6565b9190505550611bf8600c546129c8565b15611c0257600080fd5b60005b82829050811015611ca457600f838383818110611c4b577f4e487b7100000000000000000000000000000000000000000000000000000000600052603260045260246000fd5b9050602002810190611c5d9190614ca1565b604051611c6b9291906148b3565b908152602001604051809103902060009054906101000a900460ff1615611c9157600080fd5b8080611c9c90614fb6565b915050611c05565b50601084604051611cb591906148cc565b908152602001604051809103902060009054906101000a900460ff1615611cdb57600080fd5b600e85604051611ceb91906148cc565b908152602001604051809103902060009054906101000a900460ff1615611d1157600080fd5b611d1d33600c54612e2a565b611d29600c5485612fb8565b60005b82829050811015611dcc576001600f848484818110611d74577f4e487b7100000000000000000000000000000000000000000000000000000000600052603260045260246000fd5b9050602002810190611d869190614ca1565b604051611d949291906148b3565b908152602001604051809103902060006101000a81548160ff0219169083151502179055508080611dc490614fb6565b915050611d2c565b506001601085604051611ddf91906148cc565b908152602001604051809103902060006101000a81548160ff0219169083151502179055506001600e86604051611e1691906148cc565b908152602001604051809103902060006101000a81548160ff0219169083151502179055506000604051806101200160405280600c5481526020018781526020018681526020013373ffffffffffffffffffffffffffffffffffffffff1681526020013373ffffffffffffffffffffffffffffffffffffffff168152602001600073ffffffffffffffffffffffffffffffffffffffff1681526020018581526020016000815260200160011515815250905080600d6000600c548152602001908152602001600020600082015181600001556020820151816001019080519060200190611f04929190613b5e565b506040820151816002019080519060200190611f21929190613b5e565b5060608201518160030160006101000a81548173ffffffffffffffffffffffffffffffffffffffff021916908373ffffffffffffffffffffffffffffffffffffffff16021790555060808201518160040160006101000a81548173ffffffffffffffffffffffffffffffffffffffff021916908373ffffffffffffffffffffffffffffffffffffffff16021790555060a08201518160050160006101000a81548173ffffffffffffffffffffffffffffffffffffffff021916908373ffffffffffffffffffffffffffffffffffffffff16021790555060c0820151816006015560e082015181600701556101008201518160080160006101000a81548160ff021916908315150217905550905050505050505050565b61203f6129e5565b73ffffffffffffffffffffffffffffffffffffffff168273ffffffffffffffffffffffffffffffffffffffff1614156120ad576040517f08c379a00000000000000000000000000000000000000000000000000000000081526004016120a490614a2b565b60405180910390fd5b80600560006120ba6129e5565b73ffffffffffffffffffffffffffffffffffffffff1673ffffffffffffffffffffffffffffffffffffffff16815260200190815260200160002060008473ffffffffffffffffffffffffffffffffffffffff1673ffffffffffffffffffffffffffffffffffffffff16815260200190815260200160002060006101000a81548160ff0219169083151502179055508173ffffffffffffffffffffffffffffffffffffffff166121676129e5565b73ffffffffffffffffffffffffffffffffffffffff167f17307eab39ab6107e8899845ad3d59bd9653f200f220920489ca2b5937696c31836040516121ac919061496e565b60405180910390a35050565b600073ffffffffffffffffffffffffffffffffffffffff163373ffffffffffffffffffffffffffffffffffffffff1614156121f257600080fd5b6121fb816129c8565b61220457600080fd5b600061220f826118a5565b90503373ffffffffffffffffffffffffffffffffffffffff168173ffffffffffffffffffffffffffffffffffffffff161461224957600080fd5b6000600d6000848152602001908152602001600020604051806101200160405290816000820154815260200160018201805461228490614f84565b80601f01602080910402602001604051908101604052809291908181526020018280546122b090614f84565b80156122fd5780601f106122d2576101008083540402835291602001916122fd565b820191906000526020600020905b8154815290600101906020018083116122e057829003601f168201915b5050505050815260200160028201805461231690614f84565b80601f016020809104026020016040519081016040528092919081815260200182805461234290614f84565b801561238f5780601f106123645761010080835404028352916020019161238f565b820191906000526020600020905b81548152906001019060200180831161237257829003601f168201915b505050505081526020016003820160009054906101000a900473ffffffffffffffffffffffffffffffffffffffff1673ffffffffffffffffffffffffffffffffffffffff1673ffffffffffffffffffffffffffffffffffffffff1681526020016004820160009054906101000a900473ffffffffffffffffffffffffffffffffffffffff1673ffffffffffffffffffffffffffffffffffffffff1673ffffffffffffffffffffffffffffffffffffffff1681526020016005820160009054906101000a900473ffffffffffffffffffffffffffffffffffffffff1673ffffffffffffffffffffffffffffffffffffffff1673ffffffffffffffffffffffffffffffffffffffff16815260200160068201548152602001600782015481526020016008820160009054906101000a900460ff1615151515815250509050806101000151156124ed57600081610100019015159081151581525050612500565b6001816101000190151590811515815250505b80600d600085815260200190815260200160002060008201518160000155602082015181600101908051906020019061253a929190613b5e565b506040820151816002019080519060200190612557929190613b5e565b5060608201518160030160006101000a81548173ffffffffffffffffffffffffffffffffffffffff021916908373ffffffffffffffffffffffffffffffffffffffff16021790555060808201518160040160006101000a81548173ffffffffffffffffffffffffffffffffffffffff021916908373ffffffffffffffffffffffffffffffffffffffff16021790555060a08201518160050160006101000a81548173ffffffffffffffffffffffffffffffffffffffff021916908373ffffffffffffffffffffffffffffffffffffffff16021790555060c0820151816006015560e082015181600701556101008201518160080160006101000a81548160ff021916908315150217905550905050505050565b600e818051602081018201805184825260208301602085012081835280955050505050506000915054906101000a900460ff1681565b6000806126ac836118a5565b905080915050919050565b6126c86126c26129e5565b83612abb565b612707576040517f08c379a00000000000000000000000000000000000000000000000000000000081526004016126fe90614bab565b60405180910390fd5b6127138484848461302c565b50505050565b600c5481565b606061272a826129c8565b612769576040517f08c379a000000000000000000000000000000000000000000000000000000000815260040161276090614b6b565b60405180910390fd5b600060086000848152602001908152602001600020805461278990614f84565b80601f01602080910402602001604051908101604052809291908181526020018280546127b590614f84565b80156128025780601f106127d757610100808354040283529160200191612802565b820191906000526020600020905b8154815290600101906020018083116127e557829003601f168201915b5050505050905060006128136118f4565b905060008151141561282957819250505061288d565b60008251111561285e5780826040516020016128469291906148e3565b6040516020818303038152906040529250505061288d565b8061286885613088565b6040516020016128799291906148e3565b604051602081830303815290604052925050505b919050565b60008061289d610b34565b90508091505090565b600a80546128b390614f84565b80601f01602080910402602001604051908101604052809291908181526020018280546128df90614f84565b801561292c5780601f106129015761010080835404028352916020019161292c565b820191906000526020600020905b81548152906001019060200180831161290f57829003601f168201915b505050505081565b6000600560008473ffffffffffffffffffffffffffffffffffffffff1673ffffffffffffffffffffffffffffffffffffffff16815260200190815260200160002060008373ffffffffffffffffffffffffffffffffffffffff1673ffffffffffffffffffffffffffffffffffffffff16815260200190815260200160002060009054906101000a900460ff16905092915050565b60006129de82600261324790919063ffffffff16565b9050919050565b600033905090565b816004600083815260200190815260200160002060006101000a81548173ffffffffffffffffffffffffffffffffffffffff021916908373ffffffffffffffffffffffffffffffffffffffff160217905550808273ffffffffffffffffffffffffffffffffffffffff16612a60836118a5565b73ffffffffffffffffffffffffffffffffffffffff167f8c5be1e5ebec7d5bd14f71427d1e84f3dd0314c0f7b2291e5b200ac8c7c3b92560405160405180910390a45050565b6000612ab482600001613261565b9050919050565b6000612ac6826129c8565b612b05576040517f08c379a0000000000000000000000000000000000000000000000000000000008152600401612afc90614a6b565b60405180910390fd5b6000612b10836118a5565b90508073ffffffffffffffffffffffffffffffffffffffff168473ffffffffffffffffffffffffffffffffffffffff161480612b7f57508373ffffffffffffffffffffffffffffffffffffffff16612b6784610980565b73ffffffffffffffffffffffffffffffffffffffff16145b80612b905750612b8f8185612934565b5b91505092915050565b8273ffffffffffffffffffffffffffffffffffffffff16612bb9826118a5565b73ffffffffffffffffffffffffffffffffffffffff1614612c0f576040517f08c379a0000000000000000000000000000000000000000000000000000000008152600401612c0690614b4b565b60405180910390fd5b600073ffffffffffffffffffffffffffffffffffffffff168273ffffffffffffffffffffffffffffffffffffffff161415612c7f576040517f08c379a0000000000000000000000000000000000000000000000000000000008152600401612c7690614a0b565b60405180910390fd5b612c8a838383613272565b612c956000826129ed565b612ce681600160008673ffffffffffffffffffffffffffffffffffffffff1673ffffffffffffffffffffffffffffffffffffffff16815260200190815260200160002061327790919063ffffffff16565b50612d3881600160008573ffffffffffffffffffffffffffffffffffffffff1673ffffffffffffffffffffffffffffffffffffffff16815260200190815260200160002061329190919063ffffffff16565b50612d4f818360026132ab9092919063ffffffff16565b50808273ffffffffffffffffffffffffffffffffffffffff168473ffffffffffffffffffffffffffffffffffffffff167fddf252ad1be2c89b69c2b068fc378daa952ba7f163c4a11628f55a4df523b3ef60405160405180910390a4505050565b6000612dbf83600001836132e0565b60001c905092915050565b600080600080612ddd866000018661337a565b915091508160001c8160001c9350935050509250929050565b6000612e09846000018460001b8461342a565b60001c90509392505050565b6000612e23826000016134f1565b9050919050565b600073ffffffffffffffffffffffffffffffffffffffff168273ffffffffffffffffffffffffffffffffffffffff161415612e9a576040517f08c379a0000000000000000000000000000000000000000000000000000000008152600401612e9190614aeb565b60405180910390fd5b612ea3816129c8565b15612ee3576040517f08c379a0000000000000000000000000000000000000000000000000000000008152600401612eda906149eb565b60405180910390fd5b612eef60008383613272565b612f4081600160008573ffffffffffffffffffffffffffffffffffffffff1673ffffffffffffffffffffffffffffffffffffffff16815260200190815260200160002061329190919063ffffffff16565b50612f57818360026132ab9092919063ffffffff16565b50808273ffffffffffffffffffffffffffffffffffffffff16600073ffffffffffffffffffffffffffffffffffffffff167fddf252ad1be2c89b69c2b068fc378daa952ba7f163c4a11628f55a4df523b3ef60405160405180910390a45050565b612fc1826129c8565b613000576040517f08c379a0000000000000000000000000000000000000000000000000000000008152600401612ff790614b2b565b60405180910390fd5b80600860008481526020019081526020016000209080519060200190613027929190613b5e565b505050565b613037848484612b99565b61304384848484613502565b613082576040517f08c379a0000000000000000000000000000000000000000000000000000000008152600401613079906149cb565b60405180910390fd5b50505050565b606060008214156130d0576040518060400160405280600181526020017f30000000000000000000000000000000000000000000000000000000000000008152509050613242565b600082905060005b600082146131025780806130eb90614fb6565b915050600a826130fb9190614e2d565b91506130d8565b60008167ffffffffffffffff811115613144577f4e487b7100000000000000000000000000000000000000000000000000000000600052604160045260246000fd5b6040519080825280601f01601f1916602001820160405280156131765781602001600182028036833780820191505090505b50905060006001836131889190614e5e565b90508593505b6000841461323a57600a846131a39190614fff565b60306131af9190614dd7565b60f81b8282806131be90614f5a565b9350815181106131f7577f4e487b7100000000000000000000000000000000000000000000000000000000600052603260045260246000fd5b60200101907effffffffffffffffffffffffffffffffffffffffffffffffffffffffffffff1916908160001a905350600a846132339190614e2d565b935061318e565b819450505050505b919050565b6000613259836000018360001b613666565b905092915050565b600081600001805490509050919050565b505050565b6000613289836000018360001b613689565b905092915050565b60006132a3836000018360001b613813565b905092915050565b60006132d7846000018460001b8473ffffffffffffffffffffffffffffffffffffffff1660001b613883565b90509392505050565b60008183600001805490501161332b576040517f08c379a0000000000000000000000000000000000000000000000000000000008152600401613322906149ab565b60405180910390fd5b826000018281548110613367577f4e487b7100000000000000000000000000000000000000000000000000000000600052603260045260246000fd5b9060005260206000200154905092915050565b600080828460000180549050116133c6576040517f08c379a00000000000000000000000000000000000000000000000000000000081526004016133bd90614acb565b60405180910390fd5b6000846000018481548110613404577f4e487b7100000000000000000000000000000000000000000000000000000000600052603260045260246000fd5b906000526020600020906002020190508060000154816001015492509250509250929050565b6000808460010160008581526020019081526020016000205490506000811415839061348c576040517f08c379a00000000000000000000000000000000000000000000000000000000081526004016134839190614989565b60405180910390fd5b508460000160018261349e9190614e5e565b815481106134d5577f4e487b7100000000000000000000000000000000000000000000000000000000600052603260045260246000fd5b9060005260206000209060020201600101549150509392505050565b600081600001805490509050919050565b60006135238473ffffffffffffffffffffffffffffffffffffffff16613995565b613530576001905061365e565b60006135f763150b7a0260e01b6135456129e5565b88878760405160240161355b9493929190614922565b604051602081830303815290604052907bffffffffffffffffffffffffffffffffffffffffffffffffffffffff19166020820180517bffffffffffffffffffffffffffffffffffffffffffffffffffffffff838183161783525050505060405180606001604052806032815260200161515a603291398773ffffffffffffffffffffffffffffffffffffffff166139a89092919063ffffffff16565b905060008180602001905181019061360f9190613f54565b905063150b7a0260e01b7bffffffffffffffffffffffffffffffffffffffffffffffffffffffff1916817bffffffffffffffffffffffffffffffffffffffffffffffffffffffff191614925050505b949350505050565b600080836001016000848152602001908152602001600020541415905092915050565b600080836001016000848152602001908152602001600020549050600081146138075760006001826136bb9190614e5e565b90506000600186600001805490506136d39190614e5e565b90506000866000018281548110613713577f4e487b7100000000000000000000000000000000000000000000000000000000600052603260045260246000fd5b906000526020600020015490508087600001848154811061375d577f4e487b7100000000000000000000000000000000000000000000000000000000600052603260045260246000fd5b90600052602060002001819055506001836137789190614dd7565b87600101600083815260200190815260200160002081905550866000018054806137cb577f4e487b7100000000000000000000000000000000000000000000000000000000600052603160045260246000fd5b6001900381819060005260206000200160009055905586600101600087815260200190815260200160002060009055600194505050505061380d565b60009150505b92915050565b600061381f83836139c0565b61387857826000018290806001815401808255809150506001900390600052602060002001600090919091909150558260000180549050836001016000848152602001908152602001600020819055506001905061387d565b600090505b92915050565b600080846001016000858152602001908152602001600020549050600081141561392a5784600001604051806040016040528086815260200185815250908060018154018082558091505060019003906000526020600020906002020160009091909190915060008201518160000155602082015181600101555050846000018054905085600101600086815260200190815260200160002081905550600191505061398e565b828560000160018361393c9190614e5e565b81548110613973577f4e487b7100000000000000000000000000000000000000000000000000000000600052603260045260246000fd5b90600052602060002090600202016001018190555060009150505b9392505050565b600080823b905060008111915050919050565b60606139b784846000856139e3565b90509392505050565b600080836001016000848152602001908152602001600020541415905092915050565b606082471015613a28576040517f08c379a0000000000000000000000000000000000000000000000000000000008152600401613a1f90614a4b565b60405180910390fd5b613a3185613995565b613a70576040517f08c379a0000000000000000000000000000000000000000000000000000000008152600401613a6790614bcb565b60405180910390fd5b6000808673ffffffffffffffffffffffffffffffffffffffff168587604051613a99919061489c565b60006040518083038185875af1925050503d8060008114613ad6576040519150601f19603f3d011682016040523d82523d6000602084013e613adb565b606091505b5091509150613aeb828286613af7565b92505050949350505050565b60608315613b0757829050613b57565b600083511115613b1a5782518084602001fd5b816040517f08c379a0000000000000000000000000000000000000000000000000000000008152600401613b4e9190614989565b60405180910390fd5b9392505050565b828054613b6a90614f84565b90600052602060002090601f016020900481019282613b8c5760008555613bd3565b82601f10613ba557805160ff1916838001178555613bd3565b82800160010185558215613bd3579182015b82811115613bd2578251825591602001919060010190613bb7565b5b509050613be09190613be4565b5090565b5b80821115613bfd576000816000905550600101613be5565b5090565b6000613c14613c0f84614d29565b614cf8565b905082815260208101848484011115613c2c57600080fd5b613c37848285614f18565b509392505050565b6000613c52613c4d84614d59565b614cf8565b905082815260208101848484011115613c6a57600080fd5b613c75848285614f18565b509392505050565b600081359050613c8c816150fd565b92915050565b60008083601f840112613ca457600080fd5b8235905067ffffffffffffffff811115613cbd57600080fd5b602083019150836020820283011115613cd557600080fd5b9250929050565b600081359050613ceb81615114565b92915050565b600081359050613d008161512b565b92915050565b600081519050613d158161512b565b92915050565b600082601f830112613d2c57600080fd5b8135613d3c848260208601613c01565b91505092915050565b600082601f830112613d5657600080fd5b8135613d66848260208601613c3f565b91505092915050565b600081359050613d7e81615142565b92915050565b600060208284031215613d9657600080fd5b6000613da484828501613c7d565b91505092915050565b60008060408385031215613dc057600080fd5b6000613dce85828601613c7d565b9250506020613ddf85828601613c7d565b9150509250929050565b600080600060608486031215613dfe57600080fd5b6000613e0c86828701613c7d565b9350506020613e1d86828701613c7d565b9250506040613e2e86828701613d6f565b9150509250925092565b60008060008060808587031215613e4e57600080fd5b6000613e5c87828801613c7d565b9450506020613e6d87828801613c7d565b9350506040613e7e87828801613d6f565b925050606085013567ffffffffffffffff811115613e9b57600080fd5b613ea787828801613d1b565b91505092959194509250565b60008060408385031215613ec657600080fd5b6000613ed485828601613c7d565b9250506020613ee585828601613cdc565b9150509250929050565b60008060408385031215613f0257600080fd5b6000613f1085828601613c7d565b9250506020613f2185828601613d6f565b9150509250929050565b600060208284031215613f3d57600080fd5b6000613f4b84828501613cf1565b91505092915050565b600060208284031215613f6657600080fd5b6000613f7484828501613d06565b91505092915050565b600060208284031215613f8f57600080fd5b600082013567ffffffffffffffff811115613fa957600080fd5b613fb584828501613d45565b91505092915050565b600080600080600060808688031215613fd657600080fd5b600086013567ffffffffffffffff811115613ff057600080fd5b613ffc88828901613d45565b955050602086013567ffffffffffffffff81111561401957600080fd5b61402588828901613d45565b945050604061403688828901613d6f565b935050606086013567ffffffffffffffff81111561405357600080fd5b61405f88828901613c92565b92509250509295509295909350565b60006020828403121561408057600080fd5b600061408e84828501613d6f565b91505092915050565b600080604083850312156140aa57600080fd5b60006140b885828601613d6f565b92505060206140c985828601613d6f565b9150509250929050565b6140dc81614ea4565b82525050565b6140eb81614e92565b82525050565b6140fa81614eb6565b82525050565b600061410b82614d89565b6141158185614d9f565b9350614125818560208601614f27565b61412e816150ec565b840191505092915050565b600061414482614d89565b61414e8185614db0565b935061415e818560208601614f27565b80840191505092915050565b60006141768385614dcc565b9350614183838584614f18565b82840190509392505050565b600061419a82614d94565b6141a48185614dbb565b93506141b4818560208601614f27565b6141bd816150ec565b840191505092915050565b60006141d382614d94565b6141dd8185614dcc565b93506141ed818560208601614f27565b80840191505092915050565b6000614206602283614dbb565b91507f456e756d657261626c655365743a20696e646578206f7574206f6620626f756e60008301527f64730000000000000000000000000000000000000000000000000000000000006020830152604082019050919050565b600061426c603283614dbb565b91507f4552433732313a207472616e7366657220746f206e6f6e20455243373231526560008301527f63656976657220696d706c656d656e74657200000000000000000000000000006020830152604082019050919050565b60006142d2601c83614dbb565b91507f4552433732313a20746f6b656e20616c7265616479206d696e746564000000006000830152602082019050919050565b6000614312602483614dbb565b91507f4552433732313a207472616e7366657220746f20746865207a65726f2061646460008301527f72657373000000000000000000000000000000000000000000000000000000006020830152604082019050919050565b6000614378601983614dbb565b91507f4552433732313a20617070726f766520746f2063616c6c6572000000000000006000830152602082019050919050565b60006143b8602683614dbb565b91507f416464726573733a20696e73756666696369656e742062616c616e636520666f60008301527f722063616c6c00000000000000000000000000000000000000000000000000006020830152604082019050919050565b600061441e602c83614dbb565b91507f4552433732313a206f70657261746f7220717565727920666f72206e6f6e657860008301527f697374656e7420746f6b656e00000000000000000000000000000000000000006020830152604082019050919050565b6000614484603883614dbb565b91507f4552433732313a20617070726f76652063616c6c6572206973206e6f74206f7760008301527f6e6572206e6f7220617070726f76656420666f7220616c6c00000000000000006020830152604082019050919050565b60006144ea602a83614dbb565b91507f4552433732313a2062616c616e636520717565727920666f7220746865207a6560008301527f726f2061646472657373000000000000000000000000000000000000000000006020830152604082019050919050565b6000614550602283614dbb565b91507f456e756d657261626c654d61703a20696e646578206f7574206f6620626f756e60008301527f64730000000000000000000000000000000000000000000000000000000000006020830152604082019050919050565b60006145b6602083614dbb565b91507f4552433732313a206d696e7420746f20746865207a65726f20616464726573736000830152602082019050919050565b60006145f6602c83614dbb565b91507f4552433732313a20617070726f76656420717565727920666f72206e6f6e657860008301527f697374656e7420746f6b656e00000000000000000000000000000000000000006020830152604082019050919050565b600061465c602c83614dbb565b91507f4552433732314d657461646174613a2055524920736574206f66206e6f6e657860008301527f697374656e7420746f6b656e00000000000000000000000000000000000000006020830152604082019050919050565b60006146c2602983614dbb565b91507f4552433732313a207472616e73666572206f6620746f6b656e2074686174206960008301527f73206e6f74206f776e00000000000000000000000000000000000000000000006020830152604082019050919050565b6000614728602f83614dbb565b91507f4552433732314d657461646174613a2055524920717565727920666f72206e6f60008301527f6e6578697374656e7420746f6b656e00000000000000000000000000000000006020830152604082019050919050565b600061478e602183614dbb565b91507f4552433732313a20617070726f76616c20746f2063757272656e74206f776e6560008301527f72000000000000000000000000000000000000000000000000000000000000006020830152604082019050919050565b60006147f4603183614dbb565b91507f4552433732313a207472616e736665722063616c6c6572206973206e6f74206f60008301527f776e6572206e6f7220617070726f7665640000000000000000000000000000006020830152604082019050919050565b600061485a601d83614dbb565b91507f416464726573733a2063616c6c20746f206e6f6e2d636f6e74726163740000006000830152602082019050919050565b61489681614f0e565b82525050565b60006148a88284614139565b915081905092915050565b60006148c082848661416a565b91508190509392505050565b60006148d882846141c8565b915081905092915050565b60006148ef82856141c8565b91506148fb82846141c8565b91508190509392505050565b600060208201905061491c60008301846140e2565b92915050565b600060808201905061493760008301876140d3565b61494460208301866140e2565b614951604083018561488d565b81810360608301526149638184614100565b905095945050505050565b600060208201905061498360008301846140f1565b92915050565b600060208201905081810360008301526149a3818461418f565b905092915050565b600060208201905081810360008301526149c4816141f9565b9050919050565b600060208201905081810360008301526149e48161425f565b9050919050565b60006020820190508181036000830152614a04816142c5565b9050919050565b60006020820190508181036000830152614a2481614305565b9050919050565b60006020820190508181036000830152614a448161436b565b9050919050565b60006020820190508181036000830152614a64816143ab565b9050919050565b60006020820190508181036000830152614a8481614411565b9050919050565b60006020820190508181036000830152614aa481614477565b9050919050565b60006020820190508181036000830152614ac4816144dd565b9050919050565b60006020820190508181036000830152614ae481614543565b9050919050565b60006020820190508181036000830152614b04816145a9565b9050919050565b60006020820190508181036000830152614b24816145e9565b9050919050565b60006020820190508181036000830152614b448161464f565b9050919050565b60006020820190508181036000830152614b64816146b5565b9050919050565b60006020820190508181036000830152614b848161471b565b9050919050565b60006020820190508181036000830152614ba481614781565b9050919050565b60006020820190508181036000830152614bc4816147e7565b9050919050565b60006020820190508181036000830152614be48161484d565b9050919050565b6000602082019050614c00600083018461488d565b92915050565b600061012082019050614c1c600083018c61488d565b8181036020830152614c2e818b61418f565b90508181036040830152614c42818a61418f565b9050614c5160608301896140d3565b614c5e60808301886140d3565b614c6b60a08301876140d3565b614c7860c083018661488d565b614c8560e083018561488d565b614c936101008301846140f1565b9a9950505050505050505050565b60008083356001602003843603038112614cba57600080fd5b80840192508235915067ffffffffffffffff821115614cd857600080fd5b602083019250600182023603831315614cf057600080fd5b509250929050565b6000604051905081810181811067ffffffffffffffff82111715614d1f57614d1e6150bd565b5b8060405250919050565b600067ffffffffffffffff821115614d4457614d436150bd565b5b601f19601f8301169050602081019050919050565b600067ffffffffffffffff821115614d7457614d736150bd565b5b601f19601f8301169050602081019050919050565b600081519050919050565b600081519050919050565b600082825260208201905092915050565b600081905092915050565b600082825260208201905092915050565b600081905092915050565b6000614de282614f0e565b9150614ded83614f0e565b9250827fffffffffffffffffffffffffffffffffffffffffffffffffffffffffffffffff03821115614e2257614e21615030565b5b828201905092915050565b6000614e3882614f0e565b9150614e4383614f0e565b925082614e5357614e5261505f565b5b828204905092915050565b6000614e6982614f0e565b9150614e7483614f0e565b925082821015614e8757614e86615030565b5b828203905092915050565b6000614e9d82614eee565b9050919050565b6000614eaf82614eee565b9050919050565b60008115159050919050565b60007fffffffff0000000000000000000000000000000000000000000000000000000082169050919050565b600073ffffffffffffffffffffffffffffffffffffffff82169050919050565b6000819050919050565b82818337600083830152505050565b60005b83811015614f45578082015181840152602081019050614f2a565b83811115614f54576000848401525b50505050565b6000614f6582614f0e565b91506000821415614f7957614f78615030565b5b600182039050919050565b60006002820490506001821680614f9c57607f821691505b60208210811415614fb057614faf61508e565b5b50919050565b6000614fc182614f0e565b91507fffffffffffffffffffffffffffffffffffffffffffffffffffffffffffffffff821415614ff457614ff3615030565b5b600182019050919050565b600061500a82614f0e565b915061501583614f0e565b9250826150255761502461505f565b5b828206905092915050565b7f4e487b7100000000000000000000000000000000000000000000000000000000600052601160045260246000fd5b7f4e487b7100000000000000000000000000000000000000000000000000000000600052601260045260246000fd5b7f4e487b7100000000000000000000000000000000000000000000000000000000600052602260045260246000fd5b7f4e487b7100000000000000000000000000000000000000000000000000000000600052604160045260246000fd5b6000601f19601f8301169050919050565b61510681614e92565b811461511157600080fd5b50565b61511d81614eb6565b811461512857600080fd5b50565b61513481614ec2565b811461513f57600080fd5b50565b61514b81614f0e565b811461515657600080fd5b5056fe4552433732313a207472616e7366657220746f206e6f6e20455243373231526563656976657220696d706c656d656e7465724552433732313a206f776e657220717565727920666f72206e6f6e6578697374656e7420746f6b656ea26469706673582212200170654bf7d28835d5e65b95aaa61899caa068014651071e6320025efe6a768764736f6c63430008000033",
  "immutableReferences": {},
  "source": "// SPDX-License-Identifier: MIT\r\npragma solidity ^0.8.0;\r\npragma abicoder v2;\r\n\r\n// import ERC721 iterface\r\nimport \"./ERC721.sol\";\r\n\r\n// CryptoBoys smart contract inherits ERC721 interface\r\ncontract CryptoBoys is ERC721 {\r\n\r\n  // this contract's token collection name\r\n  string public collectionName;\r\n  // this contract's token symbol\r\n  string public collectionNameSymbol;\r\n  // total number of crypto boys minted\r\n  uint256 public cryptoBoyCounter;\r\n\r\n  // define crypto boy struct\r\n   struct CryptoBoy {\r\n    uint256 tokenId;\r\n    string tokenName;\r\n    string tokenURI;\r\n    address payable mintedBy;\r\n    address payable currentOwner;\r\n    address payable previousOwner;\r\n    uint256 price;\r\n    uint256 numberOfTransfers;\r\n    bool forSale;\r\n  }\r\n\r\n  // map cryptoboy's token id to crypto boy\r\n  mapping(uint256 => CryptoBoy) public allCryptoBoys;\r\n  // check if token name exists\r\n  mapping(string => bool) public tokenNameExists;\r\n  // check if color exists\r\n  mapping(string => bool) public colorExists;\r\n  // check if token URI exists\r\n  mapping(string => bool) public tokenURIExists;\r\n\r\n  // initialize contract while deployment with contract's collection name and token\r\n  constructor() ERC721(\"Crypto Boys Collection\", \"CB\") {\r\n    collectionName = name();\r\n    collectionNameSymbol = symbol();\r\n  }\r\n\r\n  // mint a new crypto boy\r\n  function mintCryptoBoy(string memory _name, string memory _tokenURI, uint256 _price, string[] calldata _colors) external {\r\n    // check if thic fucntion caller is not an zero address account\r\n    require(msg.sender != address(0));\r\n    // increment counter\r\n    cryptoBoyCounter ++;\r\n    // check if a token exists with the above token id => incremented counter\r\n    require(!_exists(cryptoBoyCounter));\r\n\r\n    // loop through the colors passed and check if each colors already exists or not\r\n    for(uint i=0; i<_colors.length; i++) {\r\n      require(!colorExists[_colors[i]]);\r\n    }\r\n    // check if the token URI already exists or not\r\n    require(!tokenURIExists[_tokenURI]);\r\n    // check if the token name already exists or not\r\n    require(!tokenNameExists[_name]);\r\n\r\n    // mint the token\r\n    _mint(msg.sender, cryptoBoyCounter);\r\n    // set token URI (bind token id with the passed in token URI)\r\n    _setTokenURI(cryptoBoyCounter, _tokenURI);\r\n\r\n    // loop through the colors passed and make each of the colors as exists since the token is already minted\r\n    for (uint i=0; i<_colors.length; i++) {\r\n      colorExists[_colors[i]] = true;\r\n    }\r\n    // make passed token URI as exists\r\n    tokenURIExists[_tokenURI] = true;\r\n    // make token name passed as exists\r\n    tokenNameExists[_name] = true;\r\n\r\n    // creat a new crypto boy (struct) and pass in new values\r\n    CryptoBoy memory newCryptoBoy = CryptoBoy(\r\n    cryptoBoyCounter,\r\n    _name,\r\n    _tokenURI,\r\n    payable(msg.sender),\r\n    payable(msg.sender),\r\n    payable(address(0)),\r\n    _price,\r\n    0,\r\n    true);\r\n    // add the token id and it's crypto boy to all crypto boys mapping\r\n    allCryptoBoys[cryptoBoyCounter] = newCryptoBoy;\r\n  }\r\n\r\n  // get owner of the token\r\n  function getTokenOwner(uint256 _tokenId) public view returns(address) {\r\n    address _tokenOwner = ownerOf(_tokenId);\r\n    return _tokenOwner;\r\n  }\r\n\r\n  // get metadata of the token\r\n  function getTokenMetaData(uint _tokenId) public view returns(string memory) {\r\n    string memory tokenMetaData = tokenURI(_tokenId);\r\n    return tokenMetaData;\r\n  }\r\n\r\n  // get total number of tokens minted so far\r\n  function getNumberOfTokensMinted() public view returns(uint256) {\r\n    uint256 totalNumberOfTokensMinted = totalSupply();\r\n    return totalNumberOfTokensMinted;\r\n  }\r\n\r\n  // get total number of tokens owned by an address\r\n  function getTotalNumberOfTokensOwnedByAnAddress(address _owner) public view returns(uint256) {\r\n    uint256 totalNumberOfTokensOwned = balanceOf(_owner);\r\n    return totalNumberOfTokensOwned;\r\n  }\r\n\r\n  // check if the token already exists\r\n  function getTokenExists(uint256 _tokenId) public view returns(bool) {\r\n    bool tokenExists = _exists(_tokenId);\r\n    return tokenExists;\r\n  }\r\n\r\n  // by a token by passing in the token's id\r\n  function buyToken(uint256 _tokenId) public payable {\r\n    // check if the function caller is not an zero account address\r\n    require(msg.sender != address(0));\r\n    // check if the token id of the token being bought exists or not\r\n    require(_exists(_tokenId));\r\n    // get the token's owner\r\n    address tokenOwner = ownerOf(_tokenId);\r\n    // token's owner should not be an zero address account\r\n    require(tokenOwner != address(0));\r\n    // the one who wants to buy the token should not be the token's owner\r\n    require(tokenOwner != msg.sender);\r\n    // get that token from all crypto boys mapping and create a memory of it defined as (struct => CryptoBoy)\r\n    CryptoBoy memory cryptoboy = allCryptoBoys[_tokenId];\r\n    // price sent in to buy should be equal to or more than the token's price\r\n    require(msg.value >= cryptoboy.price);\r\n    // token should be for sale\r\n    require(cryptoboy.forSale);\r\n    // transfer the token from owner to the caller of the function (buyer)\r\n    _transfer(tokenOwner, msg.sender, _tokenId);\r\n    // get owner of the token\r\n    address payable sendTo = cryptoboy.currentOwner;\r\n    // send token's worth of ethers to the owner\r\n    sendTo.transfer(msg.value);\r\n    // update the token's previous owner\r\n    cryptoboy.previousOwner = cryptoboy.currentOwner;\r\n    // update the token's current owner\r\n    cryptoboy.currentOwner = payable(msg.sender);\r\n    // update the how many times this token was transfered\r\n    cryptoboy.numberOfTransfers += 1;\r\n    // set and update that token in the mapping\r\n    allCryptoBoys[_tokenId] = cryptoboy;\r\n  }\r\n\r\n  function changeTokenPrice(uint256 _tokenId, uint256 _newPrice) public {\r\n    // require caller of the function is not an empty address\r\n    require(msg.sender != address(0));\r\n    // require that token should exist\r\n    require(_exists(_tokenId));\r\n    // get the token's owner\r\n    address tokenOwner = ownerOf(_tokenId);\r\n    // check that token's owner should be equal to the caller of the function\r\n    require(tokenOwner == msg.sender);\r\n    // get that token from all crypto boys mapping and create a memory of it defined as (struct => CryptoBoy)\r\n    CryptoBoy memory cryptoboy = allCryptoBoys[_tokenId];\r\n    // update token's price with new price\r\n    cryptoboy.price = _newPrice;\r\n    // set and update that token in the mapping\r\n    allCryptoBoys[_tokenId] = cryptoboy;\r\n  }\r\n\r\n  // switch between set for sale and set not for sale\r\n  function toggleForSale(uint256 _tokenId) public {\r\n    // require caller of the function is not an empty address\r\n    require(msg.sender != address(0));\r\n    // require that token should exist\r\n    require(_exists(_tokenId));\r\n    // get the token's owner\r\n    address tokenOwner = ownerOf(_tokenId);\r\n    // check that token's owner should be equal to the caller of the function\r\n    require(tokenOwner == msg.sender);\r\n    // get that token from all crypto boys mapping and create a memory of it defined as (struct => CryptoBoy)\r\n    CryptoBoy memory cryptoboy = allCryptoBoys[_tokenId];\r\n    // if token's forSale is false make it true and vice versa\r\n    if(cryptoboy.forSale) {\r\n      cryptoboy.forSale = false;\r\n    } else {\r\n      cryptoboy.forSale = true;\r\n    }\r\n    // set and update that token in the mapping\r\n    allCryptoBoys[_tokenId] = cryptoboy;\r\n  }\r\n}",
  "sourcePath": "E:\\Blockchain\\ETHEREUM\\Projects\\madinart\\03_Src\\My-Test\\cryptoboys-nft-marketplace\\src\\contracts\\CryptoBoys.sol",
  "compiler": {
    "name": "solc",
    "version": "0.8.0+commit.c7dfd78e.Emscripten.clang"
  },
  "schemaVersion": "3.4.3",
  "updatedAt": "2022-03-18T10:30:48.261Z",
  "devdoc": {
    "kind": "dev",
    "methods": {
      "approve(address,uint256)": {
        "details": "See {IERC721-approve}."
      },
      "balanceOf(address)": {
        "details": "See {IERC721-balanceOf}."
      },
      "baseURI()": {
        "details": "Returns the base URI set via {_setBaseURI}. This will be automatically added as a prefix in {tokenURI} to each token's URI, or to the token ID if no specific URI is set for that token ID."
      },
      "getApproved(uint256)": {
        "details": "See {IERC721-getApproved}."
      },
      "isApprovedForAll(address,address)": {
        "details": "See {IERC721-isApprovedForAll}."
      },
      "name()": {
        "details": "See {IERC721Metadata-name}."
      },
      "ownerOf(uint256)": {
        "details": "See {IERC721-ownerOf}."
      },
      "safeTransferFrom(address,address,uint256)": {
        "details": "See {IERC721-safeTransferFrom}."
      },
      "safeTransferFrom(address,address,uint256,bytes)": {
        "details": "See {IERC721-safeTransferFrom}."
      },
      "setApprovalForAll(address,bool)": {
        "details": "See {IERC721-setApprovalForAll}."
      },
      "supportsInterface(bytes4)": {
        "details": "See {IERC165-supportsInterface}. Time complexity O(1), guaranteed to always use less than 30 000 gas."
      },
      "symbol()": {
        "details": "See {IERC721Metadata-symbol}."
      },
      "tokenByIndex(uint256)": {
        "details": "See {IERC721Enumerable-tokenByIndex}."
      },
      "tokenOfOwnerByIndex(address,uint256)": {
        "details": "See {IERC721Enumerable-tokenOfOwnerByIndex}."
      },
      "tokenURI(uint256)": {
        "details": "See {IERC721Metadata-tokenURI}."
      },
      "totalSupply()": {
        "details": "See {IERC721Enumerable-totalSupply}."
      },
      "transferFrom(address,address,uint256)": {
        "details": "See {IERC721-transferFrom}."
      }
    },
    "version": 1
  },
  "userdoc": {
    "kind": "user",
    "methods": {},
    "version": 1
  }
}